S00B00004C61622E737265630A
S113000033C000004CC000004AC00000A1C0000082
S1130010A9C00000F3C0000042C0000040C00000BE
S11300203EC00000FDC100003AC0000038C000001E
S113003036C000007CC0000032C0000030C00000A8
S11300402EC000002CC00000C4C2000028C0000064
S113005026C0000024C0000022C0000020C0000010
S11300601EC000001CC0000011241FBECFEFD8E04A
S1130070DEBFCDBF12E0A0E0B1E0E6E5F0E102C0F2
S113008005900D92A233B107D9F723E0A2E3B2E0C1
S113009001C01D92A030B207E1F722D5DAC7B0CF74
S11300A010928500109284001092800081E0809369
S11300B081001092F502B09AEFE6F0E08081816051
S11300C080830895ECE7F0E0808180648083EAE730
S11300D0F0E0808187608083808180648083808178
S11300E0806880830895ECE7F0E09081907F8F70C2
S11300F0892B8083EAE7F0E08081806480838081BB
S113010086FDFDCF8091780090917900089586E076
S1130110EADF96958795BC0180E090E073D62CE5E4
S11301203FE842E250E4FCD641D6CB0108951F9249
S11301300F920FB60F9211248F938091F5028F5F67
S11301408093F5028F910F900FBE0F901F9018951A
S11301501F920F920FB60F9211240F900FBE0F90A3
S11301601F9018951F920F920FB60F9211242F9380
S11301703F934F935F936F937F938F939F93AF932B
S1130180BF93EF93FF93319B0EC080913402811192
S113019024C081E08093340283DF8091F2028F5F78
S11301A08093F2021AC0809134028823B1F0109235
S11301B0340280918400909185009093F40280939E
S11301C0F30210928100EFE6F0E080818E7F80835D
S11301D08091F2028F5F8093F202FF91EF91BF91C1
S11301E0AF919F918F917F916F915F914F913F91CB
S11301F02F910F900FBE0F901F9018951F920F9282
S11302000FB60F9211242F933F934F935F936F93E5
S11302107F938F939F93AF93BF93EF93FF934D9BE4
S11302200EC080913302811124C081E08093330297
S113023037DF8091F1028F5F8093F1021AC08091C1
S113024033028823B1F0109233028091840090919C
S113025085009093F4028093F30210928100EFE6FC
S1130260F0E080818E7F80838091F1028F5F8093A4
S1130270F102FF91EF91BF91AF919F918F917F9187
S11302806F915F914F913F912F910F900FBE0F90FF
S11302901F901895389A3998E8E6F0E080818260DA
S11302A08083ECE6F0E08081826080837894089516
S11302B0409A25E32A95F1F7000040981092F20243
S11302C01092F5028FEF90E722E081509040204099
S11302D0E1F700C000008091F202823009F520911C
S11302E0F3023091F4026091F502862F90E0A0E0D1
S11302F0B0E0DC0199278827BC01CD01620F731F90
S1130300811D911D7FD529E23CE349EE53E4E6D4F7
S11303104DD5DC01CB01B695A795979587950895A2
S113032080E090E0DC010895579A5598E8E6F0E003
S1130330808184608083EDE6F0E080818062808348
S1130340789408955F9A25E32A95F1F700005F9861
S11303501092F1021092F5028FEF90E722E08150A3
S113036090402040E1F700C000008091F10282300B
S113037009F52091F3023091F4026091F502862F81
S113038090E0A0E0B0E0DC0199278827BC01CD0112
S1130390620F731F811D911D35D529E23CE349EE9F
S11303A053E49CD403D5DC01CB01B695A79597956E
S11303B08795089580E090E0DC0108952FEF829FF7
S11303C0C001112464E670E00ED6662329F084B5DA
S11303D0806884BD67BD089584B58F7B84BD84B572
S11303E08F7784BD5E98089584B5836884BD85B590
S11303F0816085BD569A5E9880E0E0CF0895209A8A
S1130400219A569A289829985E98EECF08952898AC
S1130410299880E0D3CF0895289A2998CFCF0895BA
S11304201F920F920FB60F9211248F93EF93FF93A5
S1130430B89A8091F0028823C1F15B9880913202CE
S11304408F5F80933202813069F4E1EBF0E0108237
S11304508081866080831092B0008091ED02809349
S1130460B20039C0823061F4E1EBF0E010828081A7
S1130470876080831092B0008BE78093B2002BC01A
S1130480833049F5E1EBF0E010828081876080835E
S11304901092B0008BE78093B20010923202109257
S11304A0F00281E08093EF0216C08091EF0288236E
S11304B091F081E08093F0021092EF025B9AE1EBFD
S11304C0F0E010828081866080831092B000809179
S11304D0EE028093B200FF91EF918F910F900FBEC7
S11304E00F901F9018950F931F93CF93DF93539AF8
S11304F05B9808E312E0C0E0D0E0BE0180E090E049
S113050081D420E030E044E353E4E8D320E030E851
S11305104DEE54E405D520E030E849E054E47AD3C4
S113052045D4CB01A0E0B0E0880F991FAA1FBB1FE0
S1130530880F991FAA1FBB1F880F991FAA1FBB1FD3
S1130540880F991FAA1FBB1F892F8195F8018193DA
S11305508F012196C53BD10581F61092F0021092CD
S1130560EF021092B000E1EBF0E010828081846031
S113057080831092B200E0E7F0E0808181608083A4
S11305807894DF91CF911F910F91089590E0FC0131
S1130590E85CFD4F20812093EE02ECEEF2E0E81BD4
S11305A0F90B80818093ED021092F00281E0809338
S11305B0EF02E0E7F0E0808181608083089510928B
S11305C0F0021092EF02E0E7F0E080818E7F8083FA
S11305D008951F920F920FB60F9211248F9380915A
S11305E0C6008093360281E0809337028F910F908A
S11305F00FBE0F901F9018959093C5008093C40070
S1130600E1ECF0E088E1808386E08093C2008081A1
S11306108068808378940895E0ECF0E0908195FF01
S1130620FDCF8093C6000895CF93DF93EC018881BA
S1130630882329F02196F0DF89918111FCCFDF9185
S1130640CF910895CF93DF93EC018881882329F01B
S11306502196E2DF89918111FCCFDF91CF9108953A
S113066082E591E0EFDF82E691E0ECCF089594E03B
S11306709093BC001092B90097B1906397B9662328
S113068021F098B1906398B903C098B19F7C98B950
S113069097B19F7C97B9813041F018F0823049F0CE
S11306A0089588E48093B800089588E18093B800A1
S11306B008958CE08093B800089584EA8093BC0088
S11306C0ECEBF0E080818823ECF708958093BB0085
S11306D084E88093BC00ECEBF0E080818823ECF7A5
S11306E00895CF93C82FE9DF8EE4F0DF8C2FEEDF7F
S11306F084E98093BC00CF910895809135028D7F69
S113070080933502EECF0895809135028460809302
S11307103502E7DF85E08A95F1F700008091350224
S11307208B7F80933502DDDF87EC90E00197F1F752
S113073000C000000895909135029E70807F892B3F
S113074080933502CEDFE0CF0895CF93C82F8091F8
S113075035028E709C2F907F892B80933502C1DFE8
S1130760D3DF80913502282F2E7030E1C39FC00162
S11307701124822B80933502B4DFC6DFCF91089514
S11307802FEF80E792E0215080409040E1F700C0D5
S11307900000B3DF80E3CFDF8FE496E40197F1F745
S11307A000C0000080E3C7DF8FE496E40197F1F70F
S11307B000C0000080E3BFDF87E592E00197F1F716
S11307C000C0000080E2B7DF88E2BFDF8CE0BDDF5D
S11307D081E0BBDF86E0B9DF80E8B7CF0895CF932F
S11307E0C82F809135028F7081609C2F907F892B58
S11307F08093350276DF88DF809135028F70282F51
S1130800216030E1C39FC0011124822B8093350203
S113081068DF7ADFCF9108958091350288608093F4
S113082035025FCF0895CF93DF93EC01888188234D
S113083029F02196D4DF89918111FCCFDF91CF91EA
S11308400895CF93DF93EC018881882329F02196C2
S1130850C6DF89918111FCCFDF91CF91089581E0AA
S113086074DF8FE79EE30197F1F700C0000008955D
S1130870F6DF80E86ADF8CE891E0D5DF80EC65DFA5
S11308808DE991E0D0CF0895CF92DF92EF92FF925D
S11308900F931F93CF93DF93883E23E0920708F0D2
S11308A06EC0EC019C013695279536952795ABE7EC
S11308B0B4E1ACD3FC01F695E7959F01ADECBCEC3B
S11308C0A5D3AC01569547955695479556954795AA
S11308D0CA01880F991F440F551F440F551F440F19
S11308E0551F480F591FBF01641B750BAB017B01DA
S11308F0FF245CE9B70156039001579F300D112482
S11309002C0F3D1F83D36C01D694C794D694C794FF
S1130910D694C79496017AD38C01169507951695AB
S1130920079516950795C801880F991FF801EE0FD2
S1130930FF1FEE0FFF1FEE0FFF1FE80FF91F8601C9
S11309400E1B1F0BEC2F549FE00D1124902F990FB9
S1130950892F880F880F890FCE2FC81BF701EF5FEF
S1130960FE4F80813CDFF801FF27EF5FFE4F80815F
S113097036DFEC2FF0E0EF5FFE4F808130DFDF9158
S1130980CF911F910F91FF90EF90DF90CF9008953A
S1130990CF93DF93EC0180E8D8DE82E791E043DF78
S11309A0CE0172DF8EEA91E03EDFDF91CF910895B0
S11309B0CF93DF93EC0180ECC8DE89E791E033DF6D
S11309C0CE0162DF8EEA91E02EDFDF91CF910895B0
S11309D0CF93DF93EC0188ECB8DE8DE791E023DF61
S11309E0CE0152DF8EEA91E01EDFDF91CF910895B0
S11309F03A9A3B9A529822982398249825982A9AAE
S1130A002B9A2C9A2D9A089545DC8EDC61E080E0C7
S1130A102EDEB6DE01DF56DB55DB87E690E0ECDD4B
S1130A20EEDC61DDE5DF7894089583B18C738695FF
S1130A308695853008F085E00895CF93C0913602FD
S1130A408C2FEADDC33541F018F4C53491F13AC076
S1130A50C53679F1C337B1F586E092E0F3DDD7DC32
S1130A60AEDD86E090E0A0E0B0E080934D0190938D
S1130A704E01A0934F01B09350018093F6029093DE
S1130A80F702A093F802B093F90288E85EDE809141
S1130A90F6029091F702880F991F880F991F880F0B
S1130AA0991F855F9E4FCDDE109251014298439865
S1130AB00CC085E192E0C6DD81E080935101429A49
S1130AC0439A03C084E292E0BDDD2FEF81EE94E00F
S1130AD0215080409040E1F700C00000CF9108957C
S1130AE093DFBEDDC5DE2FEF89E698E1215080401B
S1130AF09040E1F700C00000B2DEC6EFD2E0809182
S1130B000001853000F11092000101DB9093FF0297
S1130B108093FE02CDDB9093FD028093FC0212DCF5
S1130B209093FB028093FA028091FE029091FF025F
S1130B302FDF8091FC029091FD023ADF8091FA024E
S1130B409091FB0245DF80913702882319F01092BF
S1130B50370273DF6ADF90E0A0E0B0E08093F60232
S1130B609093F702A093F802B093F90220915101F7
S1130B70222309F448C085309105A105B10509F483
S1130B8042C040914D0150914E0160914F017091CE
S1130B90500184179507A607B707A9F1FC01ED5B7F
S1130BA0FE4F8081F3DCE881F981E85BFE4F8081B0
S1130BB033DC88819981880F991F880F991F880FCA
S1130BC0991F855F9E4F30DD8AE026DD88E8BDDD14
S1130BD088819981880F991F880F991F880F991F01
S1130BE0855F9E4F2EDE8091F6029091F702A091D0
S1130BF0F802B091F90280934D0190934E01A093B5
S1130C004F01B0935001809100018F5F80930001E8
S1130C1076CF5058BB27AA270ED048C139D130F01F
S1130C203ED120F031F49F3F11F41EF42EC10EF496
S1130C30E095E7FB24C1E92F4AD180F3BA17620794
S1130C4073078407950718F071F49EF562C10EF4DA
S1130C50E0950B2EBA2FA02D0B01B90190010C01C8
S1130C60CA01A0011124FF27591B99F0593F50F4E0
S1130C70503E68F11A16F040A22F232F342F442738
S1130C80585FF3CF469537952795A795F040539530
S1130C90C9F77EF41F16BA0B620B730B840BBAF000
S1130CA09150A1F0FF0FBB1F661F771F881FC2F76B
S1130CB00EC0BA0F621F731F841F48F4879577957F
S1130CC06795B795F7959E3F08F0B3CF9395880F36
S1130CD008F09927EE0F9795879508950CD0E6C0F4
S1130CE0DED040F0D5D030F021F45F3F19F0C7C01A
S1130CF0511110C1CAC0EBD098F39923C9F35523FD
S1130D00B1F3951B550BBB27AA27621773078407FA
S1130D1038F09F5F5F4F220F331F441FAA1FA9F3B0
S1130D2033D00E2E3AF0E0E830D091505040E695A2
S1130D30001CCAF729D0FE2F27D0660F771F881F03
S1130D40BB1F261737074807AB07B0E809F0BB0BF2
S1130D50802DBF01FF2793585F4F2AF09E3F510516
S1130D6068F08DC0D7C05F3FECF3983EDCF3869506
S1130D7077956795B795F7959F5FC9F7880F911D8C
S1130D809695879597F90895E1E0660F771F881F78
S1130D90BB1F621773078407BA0720F0621B730B2B
S1130DA0840BBA0BEE1F88F7E095089598D088F06D
S1130DB09F5790F0B92F9927B751A0F0D1F0660F43
S1130DC0771F881F991F1AF0BA95C9F712C0B1305E
S1130DD081F09FD0B1E008959CC0672F782F8827B9
S1130DE0B85F39F0B93FCCF3869577956795B3959D
S1130DF0D9F73EF490958095709561957F4F8F4F0C
S1130E009F4F0895E89409C097FB3EF49095809510
S1130E10709561957F4F8F4F9F4F9923A9F0F92FBC
S1130E2096E9BB279395F695879577956795B7953A
S1130E30F111F8CFFAF4BB0F11F460FF1BC06F5F20
S1130E407F4F8F4F9F4F16C0882311F096E911C032
S1130E50772321F09EE8872F762F05C0662371F053
S1130E6096E8862F70E060E02AF09A95660F771F67
S1130E70881FDAF7880F9695879597F9089597F95B
S1130E809F6780E870E060E008959FEF80EC08952C
S1130E9000240A9416161706180609060895002455
S1130EA00A9412161306140605060895092E0394CF
S1130EB0000C11F4882352F0BB0F40F4BF2B11F443
S1130EC060FF04C06F5F7F4F8F4F9F4F089557FDA2
S1130ED09058440F551F59F05F3F71F04795880FA4
S1130EE097FB991F61F09F3F79F08795089512163B
S1130EF013061406551FF2CF4695F1DF08C01616E7
S1130F0017061806991FF1CF869571056105089497
S1130F100895E894BB2766277727CB0197F90895AE
S1130F200BD0C4CFB5DF28F0BADF18F0952309F051
S1130F30A6CFABCF1124EECFCADFA0F3959FD1F398
S1130F40950F50E0551F629FF001729FBB27F00D73
S1130F50B11D639FAA27F00DB11DAA1F649F6627C8
S1130F60B00DA11D661F829F2227B00DA11D621F17
S1130F70739FB00DA11D621F839FA00D611D221FD1
S1130F80749F3327A00D611D231F849F600D211DB5
S1130F90822F762F6A2F11249F5750408AF0E1F058
S1130FA088234AF0EE0FFF1FBB1F661F771F881FA1
S1130FB091505040A9F79E3F510570F060CFAACFE1
S1130FC05F3FECF3983EDCF3869577956795B7958C
S1130FD0F795E7959F5FC1F7FE2B880F911D9695B6
S1130FE0879597F9089597FB072E16F4009406D079
S1130FF077FD08D01AD007FC05D03EF49095819572
S11310009F4F0895709561957F4F0895A29FB001F9
S1131010B39FC001A39F700D811D1124911DB29F28
S1131020700D811D1124911D0895AA1BBB1B51E154
S113103007C0AA1FBB1FA617B70710F0A61BB70B44
S1131040881F991F5A95A9F780959095BC01CD01E9
S10910500895F894FFCF9F
S113105605303132333435363738394C545F4D4FD9
S11310665354004C545F48414C460043454E544546
S113107652200052545F48414C460052545F4D4F33
S1131086535400494E56414C49440053544F505012
S11310964544000014283C501928502819FF000024
S11310A60001526F626F7420436F6E74726F6C210D
S11310B60A0053656E696F722050726F6A656374B5
S11310C60A00443D00636D0A0044313D0044323D4C
S11310D60053523D0053746570733D0020526F6295
S11310E66F7420436F6E74726F6C202000205365FA
S11310F66E696F722050726F6A6563742000636D47
S1131106002042616420436F6D6D616E642020206F
S113111620002052656365697665642020202020BE
S11311262020002020436F6D6D616E6420273127D7
S1131136202020002020205265636569766564209E
S113114620202020002020436F6D6D616E642027CF
S11311563227202020004D6F746F722053746F70F5
S11311667065640A004D6F746F7220456E61626C1F
S113117665640A0042616420436F6D6D616E640AA2
S1051186000063
S9030000FC
