S00B00004C61622E737265630A
S113000033C000004CC000004AC0000048C00000DB
S113001046C0000044C0000042C0000040C00000D0
S11300203EC000003CC000003AC0000038C00000E0
S113003036C0000034C0000032C0000030C00000F0
S11300402EC000002CC000002AC0000028C0000000
S113005026C0000024C0000022C0000020C0000010
S11300601EC000001CC0000011241FBECFEFD8E04A
S1130070DEBFCDBF11E0A0E0B1E0E2E7F3E002C0F3
S113008005900D92A234B107D9F721E0A2E4B1E0C2
S113009001C01D92A334B207E1F74ED168C1B0CFBD
S11300A04598449A98B1907F282F22952F70922BCF
S11300B098B992E09A95F1F700C04498EFE1F3E023
S11300C03197F1F700C00000449A98B1907F8F7087
S11300D0892B88B9F2E0FA95F1F700C044988FE1D2
S11300E093E00197F1F700C0000008953D9A3C9A0F
S11300F087B18F6087B983E3D3DF8FEC97E00197F3
S1130100F1F700C0000082E3CBDF8FEC97E00197AA
S1130110F1F700C0000088E2C3DF8EE0C1DF81E0B8
S1130120BFDF8FE39FE10197F1F700C0000086E095
S1130130B7DF8FE39FE10197F1F700C00000089556
S1130140459A449A98B1907F282F22952F70922B2C
S113015098B992E09A95F1F700C04498EFE1F3E082
S11301603197F1F700C00000449A98B1907F8F70E6
S1130170892B88B9F2E0FA95F1F700C044988FE131
S113018093E00197F1F700C000000895CF93DF9347
S1130190EC018881882329F02196D2DF899181118D
S11301A0FCCFDF91CF91089581E07ADF8FE39FE167
S11301B00197F1F700C00000089584B18C6284B9FE
S11301C083E58CBD8CB584608CBD08958EBD0DB463
S11301D007FEFDCF0895CF93C62FF8DF87EC90E09C
S11301E00197F1F700C000008C2FF0DFCF91089544
S11301F08FEF8EBD0DB407FEFDCF8EB508952A9AFC
S113020008952A980895FBDF60E080E8E4DFF9CFE1
S11302100895CF93F4DF82E0D9DF87EC90E0019773
S1130220F1F700C00000E4DFC82FEBDF8C2FCF9183
S11302300895CF93DF93CDB7DEB7A2970FB6F894A6
S1130240DEBF0FBECDBF81E1EAE0F1E0DE01119631
S113025001900D928A95E1F781E1EBE1F1E0DE0195
S1130260529601900D928A95E1F79EDF80E818DF9F
S1130270CE0101968BDF80EC13DFCE01429686DF40
S1130280A2960FB6F894DEBF0FBECDBFDF91CF911B
S113029008951F93CF93DF93CDB7DEB766970FB65C
S11302A0F894DEBF0FBECDBF81E1ECE2F1E0DE01E8
S11302B0119601900D928A95E1F785E0EDE3F1E066
S11302C0DE01529601900D928A95E1F76DDF80E888
S11302D0E7DECE0101965ADF82ECE2DECE014296E1
S11302E055DFE09142011DECE19FE12D1124E695DB
S11302F0E695E695F0E0E050FF4F808121DFE09144
S11303004201E19F112D1124169516951695110F92
S1130310812F880F880F180FE11BF0E0E050FF4F8A
S113032080810EDF66960FB6F894DEBF0FBECDBF98
S1130330DF91CF911F91089540DF65DFD7DE79DF2C
S11303402FEF84E39CE0215080409040E1F700C00F
S113035000005FDF809342019CDF2FEF89E698E184
S1130360215080409040E1F700C00000F2CFF894A3
S1050370FFCFB9
S11303723031323334353637383920526F626F7444
S11303822020436F6E74726F6C20002020546573BA
S113039274696E6720205350492020002020546540
S11303A26D7065726174757265202020002020547E
S10503B23D0008
S9030000FC
