S00B00004C61622E737265630A
S113000033C0000044C0000042C0000040C00000F3
S11300103EC000003CC000003AC0000038C00000F0
S113002036C0000034C0000032C0000030C0000000
S11300302EC000002CC000002AC0000028C0000010
S113004026C0000024C0000022C0000020C0000020
S11300501EC000001CC000001AC0000018C0000030
S113006016C0000014C0000011241FBECFEFD8E05A
S1130070DEBFCDBF11E0A0E0B1E0ECE5F3E002C0EB
S113008005900D92A236B107D9F743D165C1B8CF17
S113009082E68093B80084E08093BC001092B9009B
S11300A0089584EA8093BC00ECEBF0E0808188231F
S11300B0ECF708958093BB0084E88093BC00ECEBDC
S11300C0F0E080818823ECF70895EBEBF0E0808189
S11300D08260808384E88093BC00ECEBF0E0808154
S11300E08823ECF78FE99FE00197F1F700C0000047
S11300F0EBEBF0E080818D7F808384E88093BC000B
S1130100ECEBF0E080818823ECF70895EBEBF0E072
S113011090819E7F908390819F7090839081807F57
S1130120982B908384E88093BC00ECEBF0E0808112
S11301308823ECF7CACF0895CF93C82FEBEBF0E0F8
S113014080818E7F808380818F70808380819C2FCB
S1130150907F892B808384E88093BC00ECEBF0E0F3
S113016080818823ECF7B1DFEBEBF0E080818E7FB8
S1130170808380818F708083208130E1C39FC001A0
S11301801124822B808384E88093BC00ECEBF0E0A4
S113019080818823ECF799DFCF91089580E3B6DF5F
S11301A080E3B4DF80E2B2DF88E2C6DF8CE0C4DF44
S11301B081E0C2DF86E0C0DF80E8BECF0895CF9340
S11301C0C82FEBEBF0E080818160808380818F70A9
S11301D0808380819C2F907F892B808384E8809307
S11301E0BC00ECEBF0E080818823ECF76EDFEBEBF6
S11301F0F0E080818160808380818F7080832081A2
S113020030E1C39FC0011124822B808384E8809352
S1130210BC00ECEBF0E080818823ECF756DFCF9153
S11302200895CF93DF93EC018881882329F02196E8
S1130230C6DF89918111FCCFDF91CF910895CF93CF
S1130240DF93EC018881882329F02196B8DF899116
S11302508111FCCFDF91CF91089581E06DDF8FE7AD
S11302609EE30197F1F700C0000008951F93CF9318
S1130270DF93CDB7DEB766970FB6F894DEBF0FBE37
S1130280CDBF81E1EDE2F1E0DE01119601900D9226
S11302908A95E1F785E0EEE3F1E0DE015296019004
S11302A00D928A95E1F7D9DF80E846DFCE01019609
S11302B0C6DF82EC41DFCE014296C1DFE0910A0144
S11302C01DECE19FE12D1124E695E695E695F0E01D
S11302D0E050FF4F808173DFE0910A01E19F112D0F
S11302E01124169516951695110F812F880F880FD6
S11302F0180FE11BF0E0E050FF4F808160DF66964D
S11303000FB6F894DEBF0FBECDBFDF91CF911F9122
S11303100895BEDEC6DE80E7CDDE40DF80E80CDF78
S113032083E491E07EDF82EC07DF83E591E079DF0F
S11303302FEF89E698E1215080409040E1F700C01A
S1130340000094DF2FEF83ED90E321508040904034
S10F0350E1F700C00000F5CFF894FFCFE7
S113035C303132333435363738392F20526F626F9F
S113036C742020436F6E74726F6C20005465737428
S113037C696E672020493243204C434400202054AA
S113038C656D706572617475726520202000202083
S113039C543D004C434420493243204D61737465F1
S11303AC72200053696D706C652054657374696EAA
S10503BC6700D4
S9030000FC
